:020000040000FA
:0400000080311C2807
:100008007E1480314E01101C0A280B281A28101063
:10001800FE3044018D00CC308C0001304001B40723
:100028000030B53D0030B63D0030B73D7E100900C8
:1000380080311E2884319B248031C70084319C2460
:100048008031C80084319D248031C90084319E24C8
:100058008031CA0020308400003085001D30843192
:10006800892480317E10400180313A288331F5237C
:10007800803184318224803111307D01C6001630F0
:100088007E01A10010307D01C50015307E01A00061
:1000980084317224803100304001C0000130BF003B
:1000A8008630BE00A030BD008331A02380310330EC
:1000B8004001C6000830C5007730890B6128C50BA0
:1000C8006128C60B612840010E1E6B286C28772812
:1000D8008331642380318331CE2380314001C500D0
:1000E8004508BC007E288431682480314001C50061
:1000F8004508BC004A08C5004508F10008308431AD
:100108002A24803140014808C5004508F10007301D
:1001180084312A24803140010E1D93289428E02838
:100128003A08031D98289928A82884315E2480312C
:1001380073084001B3007208B2007108B10070087A
:10014800B000BA01BA0AFA283A03031DAC28AD2850
:10015800FA283308F3003208F2003108F1003008B9
:10016800F0008431142480317308031DC7287208F5
:10017800031DC7287108031DC72804307002031C1B
:10018800C628C728FA2802304001C5004508BA0029
:100198004A08031DD028D128DF283B08031DD5288D
:1001A800D628DF283C08C5004508F1000030843116
:1001B8002A248031FA28FA2802303A06031DE52855
:1001C800E628F8284808031DEA28EB28F8283B0801
:1001D800031DEF28F028F8283C08C5004508F10061
:1001E800003084312A2480314001BA0140018C1A40
:1001F800FE28FF28A329A52984315E2480317308AD
:100208004001AF007208AE007108AD007008AC0084
:10021800B901B90AB0292F08F3002E08F2002D08F9
:10022800F1002C08F0008431142480317308031D78
:1002380029297208031D29297108031D2929043059
:100248007002031C28292929B02984315E248031B1
:1002580073084001AB007208AA007108A900700871
:10026800A8000230C5004508B90002303A06031D4F
:100278003E293F294F291F304802031844294529A0
:10028800B0293B08031D49294A29B0290130C50076
:100298004508C807B0291F304A02031854295529B0
:1002A800B0293B08031D59295A29B0290130C50036
:1002B8004508CA07B0292B08F3002A08F2002908C4
:1002C800F1002808F0008431142480317308031DDC
:1002D80079297208031D79297108031D79291430B9
:1002E8007002031C78297929B02984315E24803171
:1002F80073084001AB007208AA007108A9007008D1
:10030800A80002303A06031D8A298B2997291F3035
:100318004802031890299129B0293B08031D952903
:100328009629B0294A291F304A0203189C299D2979
:10033800B0293B08031DA129A229B0295A29B901CE
:10034800B0293908003A03190029013A03190F297D
:10035800033A03195F29A32940010C1AB429B529C6
:10036800512A532A84315E24803173084001A70042
:100378007208A6007108A5007008A400B801B80AA0
:100388005E2A2708F3002608F2002508F100240851
:10039800F0008431142480317308031DDF297208AA
:1003A800031DDF297108031DDF2904307002031CB7
:1003B800DE29DF295E2A84315E24803173084001FA
:1003C800A3007208A2007108A1007008A000023002
:1003D800C5004508B80002303A06031DF429F5297E
:1003E800022A48080319F929FA295E2A3B08031D3D
:1003F800FE29FF295E2A0130C8025E2A4A0803192D
:10040800062A072A5E2A3B08031D0B2A0C2A5E2AA5
:100418000130CA025E2A2308F3002208F2002108EC
:10042800F1002008F0008431142480317308031D82
:10043800292A7208031D292A7108031D292A143044
:100448007002031C282A292A5E2A84315E248031FE
:1004580073084001A3007208A2007108A100700887
:10046800A00002303A06031D3A2A3B2A462A4808C9
:1004780003193F2A402A5E2A3B08031D442A452ABD
:100488005E2AFF294A0803194A2A4B2A5E2A3B0892
:10049800031D4F2A502A5E2A0C2AB8015E2A380802
:1004A800003A0319B629013A0319C529033A031971
:1004B8000F2A512A023040013906031D642A652A91
:1004C800972A02303806031D6A2A6B2A972A892A36
:1004D8003C080438C5004508F100003084312A245E
:1004E80080314001BB01BB0AA72A3C08C50045086A
:1004F800F100003084312A24803103304001C500E6
:100508004508BB00A72ABB01A72A3B08003A0319E4
:100518006C2A013A0319A72A033A0319792A013ADE
:100528000319A72A872A3B03031D9B2A9C2AA02A72
:100538000230C5004508BB0003303B06031DA52A51
:10054800A62AA72A872A4A0849060319AC2AAD2AE7
:10055800D22A3B08031DB12AB22AD22A4A08C5006A
:100568004508F100083084312A24803140014A08C6
:10057800031DBF2AC02ACA2A3C080438C5004508FA
:10058800F100003084312A248031D22A3C08C50089
:100598004508F100003084312A24803140014808A0
:1005A80047060319D82AD92AFE2A3B08031DDD2A43
:1005B800DE2AFE2A4808C5004508F10007308431C4
:1005C8002A24803140014808031DEB2AEC2AF62A28
:1005D8003C080438C5004508F100003084312A245D
:1005E8008031FE2A3C08C5004508F10000308431FE
:1005F8002A24803140014A08C5004508C900480836
:10060800C5004508C7008F2880311C280030FC0031
:100618000030FB000030FA000030F9007308720463
:10062800710470040319192B1A2B5B2BFD01FD0AA9
:10063800282B0130F035F10DF20DF30D890B1E2B2F
:100648000130F8007808FD07F31F2B2B2C2B1D2BEE
:100658000130F935FA0DFB0DFC0D890B2D2B7308B4
:100668007702031D412B72087602031D412B710886
:100678007502031D412B70087402031C442B452B83
:100688004E2B7008F4027108F53B7208F63B7308AC
:10069800F73B79140130F336F20CF10CF00C890BAE
:1006A8004F2B0130FD02031D5A2B5B2B2C2B7C0892
:1006B800F3007B08F2007A08F1007908F0000800DE
:1006C8000830F3007308F100173084313E24833179
:1006D800F101F10A033084313E248331F101F10A3A
:1006E800053084313E2483319030F3007308F100E3
:1006F800163084313E2483312030F3007308F10032
:10070800063084313E248331F101073084313E24A0
:100718008331F101083084313E248331F1010930FD
:1007280084313E2483310230F3007308F100023033
:1007380084313E2483310800283043019000910120
:1007480040013D08C1003E08C2003F08C300400800
:10075800C4000230C135C20DC30DC40D890BAE2BC8
:100768004408F3004308F2004208F1004108F00091
:100778000130F700E830F6004830F5000030F400AA
:1007880083310A2383317008FF3E43018D00803096
:100798008F0008002930F3007308F100003084311D
:1007A8002A2483310330F3007308F10001308431C7
:1007B8002A2483314B30F3007308F100023084316E
:1007C8002A2483310230F3007308F10003308431A6
:1007D8002A248331F101043084312A2483312930D9
:1007E8000800FF3040019200FF3094007E01B801FC
:1007F800CE013030B9001030CF00CF3044018E0523
:100808000E118E148F1304309100FE308D00CC3001
:100818008C004E011A1444010E148B170B17080094
:10082800700840013402F4007108353BF500720885
:10083800363BF6007308373BF7007708F300760875
:10084800F2007508F1007408F0000800F200843125
:1008580095248431FA3084317A24843172088431C1
:100868007A248431710884317A24843184318F2444
:1008780084310800F2008431952484319C3084311D
:100888007A248431720884317A248431710884315D
:100898007A24843184318F248431080043010F196C
:1008A800562C572C522C11081F39031D5C2C5D2C1B
:1008B800522C080040013708F3003608F2003508CA
:1008C800F1003408F00008002B30F3007308F10041
:1008D800003084312A2484312B30080055307D01C2
:1008E8008F00AA308F0001308F000800F00084319B
:1008F80052248431700843018C00080055307D0172
:100908008F00AA308F008F01080064008001013138
:10091800890B8A2C00348431522484314301111507
:1009280008008431522484314301111408000A3428
:060938000A340A340A34FF
:020000040001F9
:0A000E008C3F3E378D07FF1FFF3FB8
:00000001FF
